{
  "contractName": "CryptoDoggies",
  "abi": [
    {
      "anonymous": false,
      "inputs": [
        {
          "indexed": false,
          "internalType": "uint256",
          "name": "_id",
          "type": "uint256"
        },
        {
          "indexed": false,
          "internalType": "string",
          "name": "_name",
          "type": "string"
        },
        {
          "indexed": false,
          "internalType": "uint256",
          "name": "_age",
          "type": "uint256"
        },
        {
          "indexed": false,
          "internalType": "bytes5",
          "name": "_dna",
          "type": "bytes5"
        }
      ],
      "name": "DoggyCreated",
      "type": "event"
    },
    {
      "inputs": [
        {
          "internalType": "string",
          "name": "_name",
          "type": "string"
        },
        {
          "internalType": "uint256",
          "name": "_age",
          "type": "uint256"
        },
        {
          "internalType": "bytes5",
          "name": "_dna",
          "type": "bytes5"
        }
      ],
      "name": "createDoggy",
      "outputs": [],
      "stateMutability": "nonpayable",
      "type": "function"
    }
  ],
  "bytecode": "0x6080604052600a60005560056000546200001a919062000370565b60015560056000546200002e9190620003bb565b600255600260005462000042919062000557565b6003556002600054620000569190620005d7565b6004556040518060400160405280600481526020017f446f756700000000000000000000000000000000000000000000000000000000815250600590816200009f91906200087f565b506040518060400160405280600481526020017f4b61726c0000000000000000000000000000000000000000000000000000000081525060069081620000e691906200087f565b50604051806060016040528060058054620001019062000678565b80601f01602080910402602001604051908101604052809291908181526020018280546200012f9062000678565b8015620001805780601f10620001545761010080835404028352916020019162000180565b820191906000526020600020905b8154815290600101906020018083116200016257829003601f168201915b50505050508152602001600054815260200164123456789060d81b7affffffffffffffffffffffffffffffffffffffffffffffffffffff1916815250600a6000820151816000019081620001d591906200087f565b506020820151816001015560408201518160020160006101000a81548164ffffffffff021916908360d81c02179055505050604051806060016040528060068054620002219062000678565b80601f01602080910402602001604051908101604052809291908181526020018280546200024f9062000678565b8015620002a05780601f106200027457610100808354040283529160200191620002a0565b820191906000526020600020905b8154815290600101906020018083116200028257829003601f168201915b505050505081526020016001548152602001600060d81b7affffffffffffffffffffffffffffffffffffffffffffffffffffff1916815250600d6000820151816000019081620002f191906200087f565b506020820151816001015560408201518160020160006101000a81548164ffffffffff021916908360d81c021790555050503480156200033057600080fd5b5062000966565b6000819050919050565b7f4e487b7100000000000000000000000000000000000000000000000000000000600052601160045260246000fd5b60006200037d8262000337565b91506200038a8362000337565b92508282026200039a8162000337565b91508282048414831517620003b457620003b362000341565b5b5092915050565b6000620003c88262000337565b9150620003d58362000337565b9250828203905081811115620003f057620003ef62000341565b5b92915050565b60008160011c9050919050565b6000808291508390505b600185111562000455578086048111156200042d576200042c62000341565b5b60018516156200043d5780820291505b80810290506200044d85620003f6565b94506200040d565b94509492505050565b60008262000470576001905062000543565b8162000480576000905062000543565b8160018114620004995760028114620004a457620004da565b600191505062000543565b60ff841115620004b957620004b862000341565b5b8360020a915084821115620004d357620004d262000341565b5b5062000543565b5060208310610133831016604e8410600b8410161715620005145782820a9050838111156200050e576200050d62000341565b5b62000543565b62000523848484600162000403565b925090508184048111156200053d576200053c62000341565b5b81810290505b9392505050565b600060ff82169050919050565b6000620005648262000337565b915062000571836200054a565b9250620005a07fffffffffffffffffffffffffffffffffffffffffffffffffffffffffffffffff84846200045e565b905092915050565b7f4e487b7100000000000000000000000000000000000000000000000000000000600052601260045260246000fd5b6000620005e48262000337565b9150620005f18362000337565b925082620006045762000603620005a8565b5b828206905092915050565b600081519050919050565b7f4e487b7100000000000000000000000000000000000000000000000000000000600052604160045260246000fd5b7f4e487b7100000000000000000000000000000000000000000000000000000000600052602260045260246000fd5b600060028204905060018216806200069157607f821691505b602082108103620006a757620006a662000649565b5b50919050565b60008190508160005260206000209050919050565b60006020601f8301049050919050565b600082821b905092915050565b600060088302620007117fffffffffffffffffffffffffffffffffffffffffffffffffffffffffffffffff82620006d2565b6200071d8683620006d2565b95508019841693508086168417925050509392505050565b6000819050919050565b6000620007606200075a620007548462000337565b62000735565b62000337565b9050919050565b6000819050919050565b6200077c836200073f565b620007946200078b8262000767565b848454620006df565b825550505050565b600090565b620007ab6200079c565b620007b881848462000771565b505050565b5b81811015620007e057620007d4600082620007a1565b600181019050620007be565b5050565b601f8211156200082f57620007f981620006ad565b6200080484620006c2565b8101602085101562000814578190505b6200082c6200082385620006c2565b830182620007bd565b50505b505050565b600082821c905092915050565b6000620008546000198460080262000834565b1980831691505092915050565b60006200086f838362000841565b9150826002028217905092915050565b6200088a826200060f565b67ffffffffffffffff811115620008a657620008a56200061a565b5b620008b2825462000678565b620008bf828285620007e4565b600060209050601f831160018114620008f75760008415620008e2578287015190505b620008ee858262000861565b8655506200095e565b601f1984166200090786620006ad565b60005b8281101562000931578489015182556001820191506020850194506020810190506200090a565b868310156200095157848901516200094d601f89168262000841565b8355505b6001600288020188555050505b505050505050565b61093180620009766000396000f3fe608060405234801561001057600080fd5b506004361061002b5760003560e01c80636dad245c14610030575b600080fd5b61004a6004803603810190610045919061042e565b61004c565b005b60006040518060600160405280858152602001848152602001837affffffffffffffffffffffffffffffffffffffffffffffffffffff19168152509050600781908060018154018082558091505060019003906000526020600020906003020160009091909190915060008201518160000190816100ca91906106b4565b506020820151816001015560408201518160020160006101000a81548164ffffffffff021916908360d81c02179055505050600061010661022d565b9050336008600083815260200190815260200160002060006101000a81548173ffffffffffffffffffffffffffffffffffffffff021916908373ffffffffffffffffffffffffffffffffffffffff1602179055506001600960003373ffffffffffffffffffffffffffffffffffffffff1673ffffffffffffffffffffffffffffffffffffffff168152602001908152602001600020546101a691906107b5565b600960003373ffffffffffffffffffffffffffffffffffffffff1673ffffffffffffffffffffffffffffffffffffffff168152602001908152602001600020819055507f9547215c1e46befec9461cc277edff9eea470f4117aed3b28ba9e58d7b7923c58186868660405161021e949392919061087b565b60405180910390a15050505050565b6000600160078054905061024191906108c7565b905090565b6000604051905090565b600080fd5b600080fd5b600080fd5b600080fd5b6000601f19601f8301169050919050565b7f4e487b7100000000000000000000000000000000000000000000000000000000600052604160045260246000fd5b6102ad82610264565b810181811067ffffffffffffffff821117156102cc576102cb610275565b5b80604052505050565b60006102df610246565b90506102eb82826102a4565b919050565b600067ffffffffffffffff82111561030b5761030a610275565b5b61031482610264565b9050602081019050919050565b82818337600083830152505050565b600061034361033e846102f0565b6102d5565b90508281526020810184848401111561035f5761035e61025f565b5b61036a848285610321565b509392505050565b600082601f8301126103875761038661025a565b5b8135610397848260208601610330565b91505092915050565b6000819050919050565b6103b3816103a0565b81146103be57600080fd5b50565b6000813590506103d0816103aa565b92915050565b60007fffffffffff00000000000000000000000000000000000000000000000000000082169050919050565b61040b816103d6565b811461041657600080fd5b50565b60008135905061042881610402565b92915050565b60008060006060848603121561044757610446610250565b5b600084013567ffffffffffffffff81111561046557610464610255565b5b61047186828701610372565b9350506020610482868287016103c1565b925050604061049386828701610419565b9150509250925092565b600081519050919050565b7f4e487b7100000000000000000000000000000000000000000000000000000000600052602260045260246000fd5b600060028204905060018216806104ef57607f821691505b602082108103610502576105016104a8565b5b50919050565b60008190508160005260206000209050919050565b60006020601f8301049050919050565b600082821b905092915050565b60006008830261056a7fffffffffffffffffffffffffffffffffffffffffffffffffffffffffffffffff8261052d565b610574868361052d565b95508019841693508086168417925050509392505050565b6000819050919050565b60006105b16105ac6105a7846103a0565b61058c565b6103a0565b9050919050565b6000819050919050565b6105cb83610596565b6105df6105d7826105b8565b84845461053a565b825550505050565b600090565b6105f46105e7565b6105ff8184846105c2565b505050565b5b81811015610623576106186000826105ec565b600181019050610605565b5050565b601f8211156106685761063981610508565b6106428461051d565b81016020851015610651578190505b61066561065d8561051d565b830182610604565b50505b505050565b600082821c905092915050565b600061068b6000198460080261066d565b1980831691505092915050565b60006106a4838361067a565b9150826002028217905092915050565b6106bd8261049d565b67ffffffffffffffff8111156106d6576106d5610275565b5b6106e082546104d7565b6106eb828285610627565b600060209050601f83116001811461071e576000841561070c578287015190505b6107168582610698565b86555061077e565b601f19841661072c86610508565b60005b828110156107545784890151825560018201915060208501945060208101905061072f565b86831015610771578489015161076d601f89168261067a565b8355505b6001600288020188555050505b505050505050565b7f4e487b7100000000000000000000000000000000000000000000000000000000600052601160045260246000fd5b60006107c0826103a0565b91506107cb836103a0565b92508282019050808211156107e3576107e2610786565b5b92915050565b6107f2816103a0565b82525050565b600082825260208201905092915050565b60005b8381101561082757808201518184015260208101905061080c565b60008484015250505050565b600061083e8261049d565b61084881856107f8565b9350610858818560208601610809565b61086181610264565b840191505092915050565b610875816103d6565b82525050565b600060808201905061089060008301876107e9565b81810360208301526108a28186610833565b90506108b160408301856107e9565b6108be606083018461086c565b95945050505050565b60006108d2826103a0565b91506108dd836103a0565b92508282039050818111156108f5576108f4610786565b5b9291505056fea2646970667358221220b6ad486341929b29e6a7a64acee6e1e22ee67e461f9c79d25469cac26001159064736f6c63430008110033",
  "immutableReferences": {},
  "source": "// SPDX-License-Identifier: MIT\npragma solidity >=0.4.22 <0.9.0;\n\ncontract CryptoDoggies {\n  \n  // State variables & Math Operators\n  uint age = 10;\n  uint maxAge = age * 5;\n  uint minAge = age - 5;\n  uint ultraAge = age ** 2;\n  uint modAge = age % 2;\n\n  string name = \"Doug\";\n  string name2 = \"Karl\";\n\n  // Structs - Defining Doggies\n  struct Doggy {\n    string name;\n    uint age;\n    bytes5 dna;\n  }\n\n  // Array - Location of Doggies\n  Doggy[] doggies;\n\n  // Mapping - Store Doggy ID to Owner - Count of Doggies per Owner\n\n  mapping (uint256 => address) private doggyIdToOwner;\n  mapping (address => uint256) private ownerDoggyCount;\n  \n  // Events -\n\n  event DoggyCreated(\n    uint256 _id,\n    string _name,\n    uint _age,\n    bytes5 _dna\n  );\n\n  Doggy doggy1 = Doggy({\n    name: name,\n    age: age,\n    dna: bytes5(0x1234567890)\n  });\n\n  Doggy doggy2 = Doggy({\n    name: name2,\n    age: maxAge,\n    dna: bytes5(0x0000000000)\n  });\n\n  // Function - \n  function newDoggyId() private view returns (uint256) {\n    return doggies.length - 1;\n  }\n\n  function createDoggy(string memory _name, uint _age, bytes5 _dna) public {\n    Doggy memory _doggy = Doggy({\n      name: _name,\n      age: _age,\n      dna: _dna\n    });\n\n    doggies.push(_doggy);\n\n    uint256 _newDoggyId = newDoggyId();\n\n    doggyIdToOwner[_newDoggyId] = msg.sender;\n    ownerDoggyCount[msg.sender] = ownerDoggyCount[msg.sender] + 1;\n\n    emit DoggyCreated(_newDoggyId, _name, _age, _dna);\n  }\n}\n",
  "sourcePath": "/home/ova/Desktop/Crypto/CryptoDoggies/contracts/CryptoDoggies.sol",
  "compiler": {
    "name": "solc",
    "version": "0.8.17+commit.8df45f5f.Emscripten.clang"
  },
  "schemaVersion": "3.4.11",
  "updatedAt": "2023-01-06T21:23:27.497Z",
  "networkType": "ethereum",
  "devdoc": {
    "kind": "dev",
    "methods": {},
    "version": 1
  },
  "userdoc": {
    "kind": "user",
    "methods": {},
    "version": 1
  }
}