{
  "contractName": "Migrations",
  "abi": [
    {
      "anonymous": false,
      "inputs": [
        {
          "indexed": true,
          "internalType": "address",
          "name": "previousOwner",
          "type": "address"
        },
        {
          "indexed": true,
          "internalType": "address",
          "name": "newOwner",
          "type": "address"
        }
      ],
      "name": "OwnershipTransferred",
      "type": "event"
    },
    {
      "inputs": [],
      "name": "lastCompletedMigration",
      "outputs": [
        {
          "internalType": "uint256",
          "name": "",
          "type": "uint256"
        }
      ],
      "stateMutability": "view",
      "type": "function",
      "constant": true
    },
    {
      "inputs": [],
      "name": "owner",
      "outputs": [
        {
          "internalType": "address",
          "name": "",
          "type": "address"
        }
      ],
      "stateMutability": "view",
      "type": "function",
      "constant": true
    },
    {
      "inputs": [],
      "name": "renounceOwnership",
      "outputs": [],
      "stateMutability": "nonpayable",
      "type": "function"
    },
    {
      "inputs": [
        {
          "internalType": "address",
          "name": "newOwner",
          "type": "address"
        }
      ],
      "name": "transferOwnership",
      "outputs": [],
      "stateMutability": "nonpayable",
      "type": "function"
    },
    {
      "inputs": [
        {
          "internalType": "uint256",
          "name": "completed",
          "type": "uint256"
        }
      ],
      "name": "setCompleted",
      "outputs": [],
      "stateMutability": "nonpayable",
      "type": "function"
    },
    {
      "inputs": [
        {
          "internalType": "address",
          "name": "newAddress",
          "type": "address"
        }
      ],
      "name": "upgrade",
      "outputs": [],
      "stateMutability": "nonpayable",
      "type": "function"
    }
  ],
  "bytecode": "0x608060405234801561001057600080fd5b5061002d61002261003260201b60201c565b61003a60201b60201c565b6100fe565b600033905090565b60008060009054906101000a900473ffffffffffffffffffffffffffffffffffffffff169050816000806101000a81548173ffffffffffffffffffffffffffffffffffffffff021916908373ffffffffffffffffffffffffffffffffffffffff1602179055508173ffffffffffffffffffffffffffffffffffffffff168173ffffffffffffffffffffffffffffffffffffffff167f8be0079c531659141344cd1fd0a4f28419497f9722a3daafe3b4186f6b6457e060405160405180910390a35050565b61062d8061010d6000396000f3fe608060405234801561001057600080fd5b50600436106100625760003560e01c80630900f01014610067578063715018a6146100835780638da5cb5b1461008d578063f2fde38b146100ab578063fbdbad3c146100c7578063fdacd576146100e5575b600080fd5b610081600480360381019061007c9190610404565b610101565b005b61008b61017f565b005b610095610193565b6040516100a29190610440565b60405180910390f35b6100c560048036038101906100c09190610404565b6101bc565b005b6100cf61023f565b6040516100dc9190610474565b60405180910390f35b6100ff60048036038101906100fa91906104bb565b610245565b005b610109610257565b60008190508073ffffffffffffffffffffffffffffffffffffffff1663fdacd5766001546040518263ffffffff1660e01b81526004016101499190610474565b600060405180830381600087803b15801561016357600080fd5b505af1158015610177573d6000803e3d6000fd5b505050505050565b610187610257565b61019160006102d5565b565b60008060009054906101000a900473ffffffffffffffffffffffffffffffffffffffff16905090565b6101c4610257565b600073ffffffffffffffffffffffffffffffffffffffff168173ffffffffffffffffffffffffffffffffffffffff1603610233576040517f08c379a000000000000000000000000000000000000000000000000000000000815260040161022a9061056b565b60405180910390fd5b61023c816102d5565b50565b60015481565b61024d610257565b8060018190555050565b61025f610399565b73ffffffffffffffffffffffffffffffffffffffff1661027d610193565b73ffffffffffffffffffffffffffffffffffffffff16146102d3576040517f08c379a00000000000000000000000000000000000000000000000000000000081526004016102ca906105d7565b60405180910390fd5b565b60008060009054906101000a900473ffffffffffffffffffffffffffffffffffffffff169050816000806101000a81548173ffffffffffffffffffffffffffffffffffffffff021916908373ffffffffffffffffffffffffffffffffffffffff1602179055508173ffffffffffffffffffffffffffffffffffffffff168173ffffffffffffffffffffffffffffffffffffffff167f8be0079c531659141344cd1fd0a4f28419497f9722a3daafe3b4186f6b6457e060405160405180910390a35050565b600033905090565b600080fd5b600073ffffffffffffffffffffffffffffffffffffffff82169050919050565b60006103d1826103a6565b9050919050565b6103e1816103c6565b81146103ec57600080fd5b50565b6000813590506103fe816103d8565b92915050565b60006020828403121561041a576104196103a1565b5b6000610428848285016103ef565b91505092915050565b61043a816103c6565b82525050565b60006020820190506104556000830184610431565b92915050565b6000819050919050565b61046e8161045b565b82525050565b60006020820190506104896000830184610465565b92915050565b6104988161045b565b81146104a357600080fd5b50565b6000813590506104b58161048f565b92915050565b6000602082840312156104d1576104d06103a1565b5b60006104df848285016104a6565b91505092915050565b600082825260208201905092915050565b7f4f776e61626c653a206e6577206f776e657220697320746865207a65726f206160008201527f6464726573730000000000000000000000000000000000000000000000000000602082015250565b60006105556026836104e8565b9150610560826104f9565b604082019050919050565b6000602082019050818103600083015261058481610548565b9050919050565b7f4f776e61626c653a2063616c6c6572206973206e6f7420746865206f776e6572600082015250565b60006105c16020836104e8565b91506105cc8261058b565b602082019050919050565b600060208201905081810360008301526105f0816105b4565b905091905056fea26469706673582212200fe1f75510745bb89f98f76e74eca900444832d3e251a245770b0b7cd2e2a8fd64736f6c63430008110033",
  "immutableReferences": {},
  "source": "// SPDX-License-Identifier: MIT\npragma solidity >=0.4.22 <0.9.0;\n\n// Import the library 'Ownable'\n\nimport \"@openzeppelin/contracts/access/Ownable.sol\";\n\n/**\n * @title Migrations\n * @dev This contract keeps track of the migrations that have been run on the network.\n */\n\ncontract Migrations is Ownable {\n  uint256 public lastCompletedMigration;\n\n  function setCompleted(uint256 completed) public onlyOwner {\n    lastCompletedMigration = completed;\n  }\n\n  function upgrade(address newAddress) public onlyOwner {\n    Migrations upgraded = Migrations(newAddress);\n    upgraded.setCompleted(lastCompletedMigration);\n  }\n}",
  "sourcePath": "/home/ova/Desktop/Crypto/CryptoDoggies/contracts/lifecycle/Migrations.sol",
  "compiler": {
    "name": "solc",
    "version": "0.8.17+commit.8df45f5f.Emscripten.clang"
  },
  "schemaVersion": "3.4.11",
  "updatedAt": "2023-01-06T21:23:27.508Z",
  "networkType": "ethereum",
  "devdoc": {
    "details": "This contract keeps track of the migrations that have been run on the network.",
    "kind": "dev",
    "methods": {
      "owner()": {
        "details": "Returns the address of the current owner."
      },
      "renounceOwnership()": {
        "details": "Leaves the contract without owner. It will not be possible to call `onlyOwner` functions anymore. Can only be called by the current owner. NOTE: Renouncing ownership will leave the contract without an owner, thereby removing any functionality that is only available to the owner."
      },
      "transferOwnership(address)": {
        "details": "Transfers ownership of the contract to a new account (`newOwner`). Can only be called by the current owner."
      }
    },
    "title": "Migrations",
    "version": 1
  },
  "userdoc": {
    "kind": "user",
    "methods": {},
    "version": 1
  }
}